:020000040800F2
:10000000D0040024B1020008912B00086F2A0008D8
:100010008D2B0008BD030008EF3800080000000029
:10002000000000000000000000000000612E000839
:100030001504000800000000952B0008632E00083E
:10004000CB020008CB020008CB020008CB0200085C
:10005000CB020008CB020008CB020008CB0200084C
:10006000CB020008CB020008CB020008CB0200083C
:10007000CB020008CB020008CB020008CB0200082C
:10008000CB020008CB020008CB020008CB0200081C
:10009000CB020008CB020008CB020008CB0200080C
:1000A000CB020008CB020008CB020008CB020008FC
:1000B000CB020008CB020008CB020008CB020008EC
:1000C000CB020008CB020008CB020008CB020008DC
:1000D000CB020008CB020008CB020008CB020008CC
:1000E000CB020008CB02000800000000CB02000891
:1000F000CB020008CB020008CB020008CB020008AC
:10010000CB020008CB020008CB020008CB0200089B
:10011000CB020008CB020008CB020008CB0200088B
:10012000CB020008CB020008CB020008CB0200087B
:10013000CB020008CB020008CB020008CB0200086B
:1001400000000000000000000000000000000000AF
:10015000CB020008CB020008CB020008CB0200084B
:10016000CB020008CB020008CB020008CB0200083B
:10017000CB020008CB020008CB020008CB0200082B
:10018000CB020008CB020008CB020008CB0200081B
:10019000CB020008CB020008CB020008CB0200080B
:1001A000CB020008CB020008CB020008CB020008FB
:1001B000CB020008CB020008CB020008CB020008EB
:1001C000CB020008CB020008CB020008CB020008DB
:1001D000CB020008CB020008CB020008CB020008CB
:1001E000CB020008CB020008CB020008CB020008BB
:1001F000CB020008CB020008CB020008CB020008AB
:10020000CB020008CB020008CB020008CB0200089A
:10021000CB020008CB020008CB020008CB0200088A
:10022000CB020008CB020008CB020008000000004F
:10023000CB020008CB02000800000000CB0200083F
:10024000CB020008CB020008CB020008CB0200085A
:10025000CB020008CB020008CB020008CB0200084A
:10026000CB020008CB020008CB020008CB0200083A
:10027000CB020008CB020008CB02000800000000FF
:10028000CB020008CB020008CB02000800000000EF
:1002900000000000CB020008DFF810D000F07CF86E
:1002A00000480047C93C0008AFF30080D004002498
:1002B0000648804706480047FEE7FEE7FEE7FEE700
:1002C000FEE7FEE7FEE7FEE7FEE7FEE7A12F0008F8
:1002D000990200082DE9F05F0546002092469B46F2
:1002E00088460646814640241BE02846414647464C
:1002F000224600F041F853465A46C01A914110D3A5
:1003000011461846224600F028F82D1A67EB01081E
:100310004F4622460120002100F01FF817EB00098C
:100320004E41201EA4F10104DFDC484631462A4636
:100330004346BDE8F09FD2B201E000F8012B491E10
:10034000FBD270470022F6E710B513460A46044672
:100350001946FFF7F0FF204610BD202A04DB203AA3
:1003600000FA02F1002070479140C2F1200320FA08
:1003700003F3194390407047202A04DB203A21FA06
:1003800002F00021704721FA02F3D040C2F12002AE
:100390009140084319467047064C074D06E0E06857
:1003A00040F0010394E8070098471034AC42F6D3BC
:1003B000FFF776FF1C3D00083C3D000800BFFEE74C
:1003C00000B587B000BF1148006840F010000F4929
:1003D00008600846006800F01000019000BF00BFF0
:1003E000112003900020049002200590102002901C
:1003F00002A9074800F0B8F82020029002A904489A
:1004000000F0B2F803F02EFC07B000BDE044025843
:1004100000100258704772B600BFFEE700B587B003
:1004200000BF1848006840F00800164908600846F8
:10043000006800F00800019000BF00BF00BF084640
:10044000006840F0100008600846006800F01000E6
:10045000019000BF00BF002003900490032005908E
:100460004FF40060029002A9074800F07DF803F005
:1004700085FA00200549487048700120087007B0CF
:1004800000BD0000E0440258000C0258AC000024FB
:1004900008B50422694648F2401000F027F89DF89C
:1004A000030000069DF8021000EB01409DF80110CA
:1004B00000EB01209DF80010084408BD38B5044643
:1004C0000D460422694648F2480000F00FF89DF8F6
:1004D00000109DF8010001EB002020809DF8021023
:1004E0009DF8030001EB0020288038BD2DE9F04184
:1004F00005460E46174603F09DFB1A49887803F01F
:1005000071FB03F0C3FB281203F06CFB03F0BEFB8E
:10051000E8B203F067FB03F0B9FB03F08BFB114972
:100520008978491CC8B203F05DFB03F0AFFB0024DF
:1005300001E0601CC4B21E2CFBDB002406E003F0CB
:1005400031FB305503F0DEFA601CC4B2781EA042C5
:10055000F5DC03F027FB305503F010FB03F082FBC2
:10056000BDE8F081AC000024F8B502460B4600213E
:100570006F4DD7E001278F401E6806EA0704002C64
:1005800072D01E7906F00306012E04D01E7906F003
:100590000306022E13D190684F000326BE40B043DD
:1005A0004F00DE68BE4030439060506801268E40A8
:1005B000B0431E79C6F300168E40304350601E795A
:1005C00006F00306032E09D0D0684F000326BE4074
:1005D000B0434F009E68BE403043D0601E7906F0A5
:1005E0000306022E13D1CF0802F1200656F8270089
:1005F0004E07F70E0F26BE40B0434F07FF0E1E6991
:10060000BE403043CF0802F1200646F827001068AC
:100610004F000326BE40B0431E7906F003064F008C
:10062000BE40304310605E6806F44036002E78D03D
:1006300000BF404E366846F002063E4F3E603E46E2
:10064000366806F00206009600BF00BF3A4E8F08DB
:1006500056F827008E07370F0F26BE40B043374E9F
:10066000B24202D100262EE05BE0354EB24201D10B
:10067000012628E0334EB24201D1022623E0324E59
:10068000B24201D103261EE0304EB24201D104260F
:1006900019E02F4EB24201D1052614E02D4EB24290
:1006A00001D106260FE02C4EB24201D107260AE006
:1006B0002A4EB24201D1082605E0294EB24201D1AC
:1006C000092600E00A268F073F0FBE4030431A4E2E
:1006D0008F0846F827004FF0B0463068A0435E68A8
:1006E00006F4801606B120434FF0B04630607068C3
:1006F000A0435E6806F4001606B120434FF0B046F2
:1007000070606868A0435E6806F4003606B1204356
:1007100068602868A0435E6806F4803606B120430E
:100720002860491C1E68CE40002E7FF423AFF8BD20
:1007300080000058F4440258080400580000025891
:100740000004025800080258000C02580010025819
:100750000014025800180258001C025800200258C9
:10076000002402580AB1816101E00B0483617047E3
:1007700001480068000C70470010005C01480068E8
:10078000704700000000002403480068034909780E
:100790000844014908607047000000240800002454
:1007A00010B5032000F0A8F801F0B8FA1049096864
:1007B000C1F303210F4A515C01F01F0120FA01F43B
:1007C0000B48006800F00F001146085C00F01F00A5
:1007D00024FA00F008490860084804600F2000F07F
:1007E0000FF808B1012010BD00F036F80020FAE73C
:1007F000184402580C3D0008100000240C0000248E
:1008000070B504461148007808B9012070BD0F4842
:1008100000784FF47A71B1FBF0F00D490968B1FB33
:10082000F0F5284601F090FF08B10120EEE7102C0A
:1008300007D200222146501E00F020F8054804602F
:1008400001E00120E2E70020E0E7000008000024CA
:100850000C0000240400002408B500BF064800680E
:1008600040F00200044908600846006800F00200F9
:10087000009000BF00BF08BDF44402582DE9F05FAE
:1008800080460D46164603F03DF8074639462A468F
:10089000334601F00700C0F1070ABAF1040F02D98C
:1008A0004FF0040A01E0C0F1070AD14600F1040A42
:1008B000BAF1070F02D24FF0000A01E0A0F1030ADB
:1008C000D4464FF0010A0AFA09FAAAF1010A0AEA23
:1008D000020A0AFA0CFA4FF0010B0BFA0CFBABF10F
:1008E000010B0BEA030B4AEA0B042146404603F0D6
:1008F00011F8BDE8F09F000000BF00F00702064BB2
:1009000019684FF6FF031940044B0B4343EA0221D9
:10091000014B196000BF70470CED00E00000FA05C4
:1009200070B5044615480068C0F3800048B9134804
:10093000006800F00700A04201D0012070BD002037
:10094000FCE70E48006820F0070020430B490860D0
:10095000FFF714FF054607E0FFF710FF401BB0F557
:100960007A7F01D90120E9E7044808380068C0F31C
:1009700040300028F0D00020E0E700000C4802588A
:1009800010B501F081F905490968C1F30211044A63
:10099000515C01F01F01C84010BD00002044025806
:1009A0000C3D000870B50146844D2D6805F0030329
:1009B000824D2D68C5F30530804D2D1D2D68C5F382
:1009C00000147E4D14352D68C5F3CC0515FB04F5D8
:1009D00001EE105AB8EE411AF0EE410A00286FD02D
:1009E00023B1012B4ED0022B6BD16BE0734D283D10
:1009F0002D68C5F340153DB3704D283D2D68C5F3F6
:100A0000C1066F4D25FA06F201EE102AF8EE411AE2
:100A100001EE100AB8EE411A81EE812A9FED691AA3
:100A2000C0EE811A654D10352D68C5F3080501EE3D
:100A3000105AB8EE411A31EE811AF7EE001A31EE73
:100A4000211A22EE010A1CE001EE100AB8EE411A4A
:100A5000DFED5D1A81EE812A9FED5A1AC0EE811AF0
:100A6000564D10352D68C5F3080501EE105AB8EE45
:100A7000411A31EE811AF7EE001A31EE211A22EEF8
:100A8000010A5BE001EE100AB8EE411ADFED4F1AE1
:100A900081EE812A9FED4B1AC0EE811A474D103529
:100AA0002D68C5F3080501EE105AB8EE411A31EE73
:100AB000811AF7EE001A31EE211A22EE010A3DE00A
:100AC00077E01DE001EE100AB8EE411A9FED402AD2
:100AD000C2EE011A9FED3B1A80EE812A374D103588
:100AE0002D68C5F3080501EE105AB8EE411A32EE32
:100AF000011AB7EE002A31EE021A21EE810A1DE03A
:100B000001EE100AB8EE411ADFED301A81EE812AAB
:100B10009FED2C1AC0EE811A284D10352D68C5F3B3
:100B2000080501EE105AB8EE411A31EE811AF7EEBF
:100B3000001A31EE211A22EE010A00BF00BF1F4D3C
:100B400010352D68C5F3462501EE105AB8EE411A4E
:100B5000F7EE001A31EE211AC0EE011ABCEEE11ACE
:100B600081ED001A154D10352D68C5F3064501EECF
:100B7000105AB8EE411AF7EE001A31EE211AC0EE03
:100B8000011ABCEEE11A81ED011A0C4D10352D68E9
:100B9000C5F3066501EE105AB8EE411AF7EE001AD9
:100BA00031EE211AC0EE011ABCEEE11A81ED021AF3
:100BB00003E000250D604D608D6070BD2844025833
:100BC0000090D003000000460024744C0024744AB6
:100BD00020BCBE4B70B50146844D2D6805F0030363
:100BE000824D2D68C5F30550804D2D1D2D68C5F330
:100BF00000247E4D1C352D68C5F3CC0515FB04F58E
:100C000001EE105AB8EE411AF0EE410A00286FD0FA
:100C100023B1012B4ED0022B6BD16BE0734D283DDD
:100C20002D68C5F340153DB3704D283D2D68C5F3C3
:100C3000C1066F4D25FA06F201EE102AF8EE411AB0
:100C400001EE100AB8EE411A81EE812A9FED691A71
:100C5000C0EE811A654D18352D68C5F3080501EE03
:100C6000105AB8EE411A31EE811AF7EE001A31EE41
:100C7000211A22EE010A1CE001EE100AB8EE411A18
:100C8000DFED5D1A81EE812A9FED5A1AC0EE811ABE
:100C9000564D18352D68C5F3080501EE105AB8EE0B
:100CA000411A31EE811AF7EE001A31EE211A22EEC6
:100CB000010A5BE001EE100AB8EE411ADFED4F1AAF
:100CC00081EE812A9FED4B1AC0EE811A474D1835EF
:100CD0002D68C5F3080501EE105AB8EE411A31EE41
:100CE000811AF7EE001A31EE211A22EE010A3DE0D8
:100CF00077E01DE001EE100AB8EE411A9FED402AA0
:100D0000C2EE011A9FED3B1A80EE812A374D18354D
:100D10002D68C5F3080501EE105AB8EE411A32EEFF
:100D2000011AB7EE002A31EE021A21EE810A1DE007
:100D300001EE100AB8EE411ADFED301A81EE812A79
:100D40009FED2C1AC0EE811A284D18352D68C5F379
:100D5000080501EE105AB8EE411A31EE811AF7EE8D
:100D6000001A31EE211A22EE010A00BF00BF1F4D0A
:100D700018352D68C5F3462501EE105AB8EE411A14
:100D8000F7EE001A31EE211AC0EE011ABCEEE11A9C
:100D900081ED001A154D18352D68C5F3064501EE95
:100DA000105AB8EE411AF7EE001A31EE211AC0EED1
:100DB000011ABCEEE11A81ED011A0C4D18352D68AF
:100DC000C5F3066501EE105AB8EE411AF7EE001AA7
:100DD00031EE211AC0EE011ABCEEE11A81ED021AC1
:100DE00003E000250D604D608D6070BD2844025801
:100DF0000090D003000000460024744C0024744A84
:100E000020BCBE4B2DE9F04104460025A8462068D1
:100E100000F00060B0F1006F30D1606E48B1B0F505
:100E2000801F0DD0B0F5001F10D0B0F5401F15D1B8
:100E300013E0F948006840F40030F74908600FE01B
:100E40000221201D01F0A8FE054609E0022104F15F
:100E5000240001F053FF054602E001E0012500BF38
:100E600000BF55B9EC482430006820F44010616E92
:100E70000843E9492431086000E0A846208800F4CE
:100E80008070B0F5807F2DD1606D05281AD2DFE823
:100E900000F0030A10171800DF48006840F4003023
:100EA000DD49086010E00021201D01F075FE0546B7
:100EB0000AE0002104F1240001F020FF054603E0D0
:100EC00002E001E0012500BF00BF55B9D24824303F
:100ED000006820F00700616D0843CF4924310860A5
:100EE00000E0A846208800F40070B0F5007F33D100
:100EF000A06D802817D003DC40B140281CD10CE045
:100F0000C02817D0B0F5807F16D114E0C248006821
:100F100040F40030C049086010E00021201D01F0BD
:100F20003BFE05460AE0002104F1240001F0E6FE44
:100F3000054603E002E001E0012500BF00BF55B90E
:100F4000B5482430006820F4E070A16D0843B24930
:100F50002431086000E0A846208800F48060B0F5E5
:100F6000806F38D1D4F8A400B0F5800F19D004DC1C
:100F700050B1B0F5001F1DD10DE0B0F5C00F17D076
:100F8000B0F5000F16D114E0A348006840F400301B
:100F9000A149086010E00021201D01F0FDFD05467B
:100FA0000AE0002104F1240001F0A8FE054603E058
:100FB00002E001E0012500BF00BF5DB996482C307A
:100FC000006820F46000D4F8A410084392492C3142
:100FD000086000E0A846208800F40060B0F5006FCB
:100FE00038D1D4F8A800B0F1007F19D004DC50B19A
:100FF000B0F1807F1DD10DE0B0F1407F17D0B0F18E
:10100000806F16D114E08448006840F400308249B3
:10101000086010E00021201D01F0BEFD05460AE039
:10102000002104F1240001F069FE054603E002E01E
:1010300001E0012500BF00BF5DB977482C30006892
:1010400020F0E060D4F8A810084373492C31086000
:1010500000E0A846206800F00070B0F1007F27D1C2
:10106000A06CA0B1102804D0202809D030280FD1BE
:101070000CE06948006840F400306749086009E006
:101080000221201D01F088FD054603E002E001E099
:10109000012500BF00BF55B95F482030006820F02F
:1010A0003000A16C08435C492031086000E0A8468C
:1010B000208800F48050B0F5805F36D1E06DB0F547
:1010C000005F19D004DC50B1B0F5805F1DD10DE098
:1010D000B0F5405F17D0B0F5804F16D114E04E4800
:1010E000006840F400304C49086010E00021201DE9
:1010F00001F052FD05460AE0002104F1240001F050
:10110000FDFD054603E002E001E0012500BF00BF50
:1011100055B941482430006820F4E040E16D0843AF
:101120003D492431086000E0A846208800F40050C2
:10113000B0F5005F34D1206EB0F5403F1DD007DC24
:1011400068B1B0F5803F0BD0B0F5003F18D10DE08D
:10115000B0F5802F12D0B0F5A02F11D10FE011E023
:101160000121201D01F018FD05460BE0012104F1CD
:10117000240001F0C3FD054604E003E002E001E0C5
:10118000012500BF00BF55B923482430006820F472
:10119000E020216E084320492431086000E0A84681
:1011A000208800F48040B0F5804F38D1D4F8AC00EE
:1011B000B0F1405F1DD007DC68B1B0F1805F0BD0AB
:1011C000B0F1005F18D10DE0B0F1804F12D0B0F156
:1011D000A04F11D10FE011E00121201D01F0DCFC36
:1011E00005460BE0012104F1240001F087FD0546CE
:1011F00004E003E002E001E0012500BF00BF6DB99B
:1012000005482C30006820F0E040D4F8AC100843CA
:1012100001492C31086002E02C440258A84620887D
:1012200000F40040B0F5004F26D1E06E98B1B0F167
:10123000805F03D0B0F1005F0ED106E0F94800688E
:1012400040F40030F749086008E00121201D01F05A
:10125000A3FC054602E001E0012500BF00BF55B92F
:10126000F0482430006820F04050E16E0843ED491A
:101270002431086000E0A846206800F08070B0F1DA
:10128000807F27D1606CA0B1012804D0022809D04A
:1012900003280FD10CE0E348006840F40030E14936
:1012A000086009E00221201D01F076FC054603E0FC
:1012B00002E001E0012500BF00BF55B9D948203048
:1012C000006820F00300616C0843D64920310860B3
:1012D00000E0A846206800F48000B0F5800F7DD1C2
:1012E000D148006840F48070CF490860FFF746FAA3
:1012F000064606E0FFF742FA801B642801D9032561
:1013000005E0C948006800F480700028F2D000BFF2
:1013100085BBC4484430006800F44070B4F8B01095
:1013200001F44071884213D0BE484430006820F474
:101330004077BC484430006840F48030B9494431BB
:1013400008600846006820F480300860084607609E
:10135000D4F8B000B0F5807F15D1FFF70FFA06463C
:1013600009E0FFF70BFA801B41F28831884202D96D
:10137000032507E038E0AB4844300068C0F3400084
:101380000028EED000BF55BB00BFB4F8B00000F499
:101390004070B0F5407F0ED1A2481C38006820F4A0
:1013A0007C51A24AD4F8B000104041EA10109D4987
:1013B0001C39086007E09B481C38006820F47C500A
:1013C00098491C390860974844300068B4F8B01058
:1013D000C1F30B0108439349443101E005E001E00A
:1013E000086002E0A84600E0A846207800F001006E
:1013F00068B3A06F182819D005DC48B1082808D0B8
:10140000102816D10BE0202811D0282811D10FE088
:1014100011E00121201D01F0BFFB05460BE0012179
:1014200004F1240001F06AFC054604E003E002E058
:1014300001E0012500BF00BF55B97A482830006897
:1014400020F03800A16F084376492831086000E099
:10145000A846207800F00200022828D1606F0628F4
:1014600015D2DFE800F003040A11121311E0012184
:10147000201D01F091FB05460BE0012104F1240041
:1014800001F03CFC054604E003E002E001E0012538
:1014900000BF00BF55B963482830006820F007003E
:1014A000616F08435F492831086000E0A846207852
:1014B00000F0040004282AD1D4F89000062815D2A0
:1014C000DFE800F003040A11121311E00121201DCE
:1014D00001F062FB05460BE0012104F1240001F05C
:1014E0000DFC054604E003E002E001E0012500BF39
:1014F00000BF5DB94B482C30006820F00700D4F8DD
:101500009010084347492C31086000E0A846207835
:1015100000F02000202836D1D4F88C00B0F1405FD4
:101520001DD007DC68B1B0F1805F0BD0B0F1005F77
:1015300018D10DE0B0F1804F12D0B0F1A04F11D111
:101540000FE011E00021201D01F026FB05460BE015
:10155000022104F1240001F0D1FB054604E003E080
:1015600002E001E0012500BF00BF5DB92D48283031
:10157000006820F0E040D4F88C1008432949283155
:10158000086000E0A846207800F04000402836D1EE
:10159000D4F89800B0F5406F1DD007DC68B1B0F505
:1015A000806F0BD0B0F5006F18D10DE0B0F5805F03
:1015B00012D0B0F5A05F11D10FE011E00021201D85
:1015C00001F0EAFA05460BE0022104F1240001F0E3
:1015D00095FB054604E003E002E001E0012500BFC1
:1015E00000BF5DB90F482C30006820F4E050D4F8FB
:1015F000981008430B492C31086000E0A846207879
:1016000000F0800080283AD1D4F89C00B0F5C04F9B
:1016100023D00DDC98B1B0F5005F11D0B0F5804F4C
:101620001ED113E02C44025800480258FFFCFF0F63
:10163000B0F5004F12D0B0F5204F11D10FE011E0FE
:101640000021201D01F0A8FA05460BE0022104F15B
:10165000240001F053FB054604E003E002E001E052
:10166000012500BF00BF4DB9BE48006820F46040AE
:10167000D4F89C100843BB49086000E0A8462078D5
:1016800000F00800082817D1D4F88000B0F5805F7A
:1016900007D1022104F1240001F030FB08B14FF022
:1016A0000108B048001F006820F44050D4F88010B2
:1016B0000843AC49091F0860207800F0100010288A
:1016C00015D1D4F89400B0F5807F07D1022104F140
:1016D000240001F013FB08B14FF00108A148006895
:1016E00020F44070D4F8941008439E4908602068A4
:1016F00000F40020B0F5002F26D1D4F8A00030B1BE
:10170000B0F5803F09D0B0F5003F0ED10CE00021CC
:10171000201D01F041FA054609E0022104F12400F0
:1017200001F0ECFA054602E001E0012500BF00BF30
:101730004DB98C48006820F44030D4F8A01008431C
:101740008849086000E0A846206800F48020B0F5D1
:10175000802F2DD1D4F88400B0F5801F06D0B0F5CD
:10176000001F0CD0B0F5401F11D10FE07D482C3880
:10177000006840F400307B492C39086009E0012101
:1017800004F1240001F0BAFA054602E001E0012567
:1017900000BF00BF5DB97348001F006820F440100F
:1017A000D4F8841008436F49091F086000E0A84678
:1017B000206800F48030B0F5803F24D1E06C18B18F
:1017C000B0F5803F0FD108E066482C38006840F43F
:1017D000003064492C39086007E00221201D01F027
:1017E000DBF9054601E0012500BF00BF55B95D48A2
:1017F0000C38006820F48030E16C084359490C39FA
:10180000086000E0A846206800F00050B0F1005FDA
:1018100007D1022104F1240001F070FA08B14FF061
:101820000108206800F40030B0F5003F27D1E06FD8
:10183000A0B1B0F5807F06D0B0F5007F0CD0B0F538
:10184000407F0CD109E047482C38006840F4003054
:1018500044492C39086004E003E002E001E001257E
:1018600000BF00BF55B93F48001F006820F440701A
:10187000E16F08433B49091F086000E0A846206863
:1018800000F48010B0F5801F09D136480838006890
:1018900020F00040216F0843324908390860206871
:1018A00000F08050B0F1805F0AD12E4848380068BF
:1018B00020F48040D4F8B41008432A49483908601D
:1018C000206800F40010B0F5001F09D12548083841
:1018D000006820F08070A16E084322490839086032
:1018E000206800F08040B0F1804F11D100BF1D484A
:1018F0004838006820F400401A4948390860084612
:101900000068D4F8B810084316494839086000BF89
:10191000206800F00040B0F1004F09D111480C38A8
:10192000006820F04050216D08430E490C390860D2
:10193000206800F40000B0F5000F0AD10948001F2C
:10194000006820F44000D4F8881008430549091FB6
:101950000860B8F1000F02D10020BDE8F08101203D
:10196000FBE70000584402582DE9F04104460D46BB
:1019700014B90120BDE8F081BD48006800F00F00F7
:10198000A8420ED2BA48006820F00F002843B84998
:1019900008600846006800F00F00A84201D001204E
:1019A000E8E7207800F0040004280ED1B14920694E
:1019B000096801F07001884207D9AE48006820F03C
:1019C000700021690843AB490860207800F00800E6
:1019D000082811D1A749091D6069096801F0700143
:1019E000884209D9A348001D006820F07000616991
:1019F0000843A049091D0860207800F01000102855
:101A000011D19C49091DA069096801F4E06188426F
:101A100009D99848001D006820F4E060A1690843D6
:101A20009449091D0860207800F02000202811D179
:101A300090490831E069096801F07001884209D9CC
:101A40008C480830006820F07000E169084389493B
:101A500008310860207800F0020002280ED1854984
:101A6000E068096801F00F01884207D981480068E1
:101A700020F00F00E16808437E490860207800F0FC
:101A80000100002850D07B48006820F47060A168F5
:101A90000843784908606068022807D175481838FB
:101AA0000068C0F34040F8B9012063E7606803288C
:101AB00007D1704818380068C0F34060A0B9012011
:101AC00058E76068012807D16A4818380068C0F3F1
:101AD000002048B901204DE7664818380068C0F377
:101AE000800008B9012045E762480838006820F006
:101AF0000700616808435F4908390860FEF73EFE49
:101B0000064608E0FEF73AFE801B41F28831884223
:101B100001D903202EE757480838006800F0380044
:101B20006168B0EBC10FEDD1207800F0020002280F
:101B30000ED15049E068096801F00F01884207D2D0
:101B40004C48006820F00F00E168084349490860EC
:101B50004748006800F00F00A8420ED944480068CA
:101B600020F00F002843424908600846006800F052
:101B70000F00A84201D00120FCE6207800F004000C
:101B800004280ED13B492069096801F070018842A0
:101B900007D23848006820F07000216908433549B1
:101BA0000860207800F00800082811D13149091D8B
:101BB0006069096801F07001884209D22D48001D52
:101BC000006820F07000616908432A49091D086017
:101BD000207800F01000102811D12649091DA069B5
:101BE000096801F4E061884209D22248001D0068BA
:101BF00020F4E060A16908431E49091D08602078AF
:101C000000F02000202811D11A490831E069096844
:101C100001F07001884209D216480830006820F0AF
:101C20007000E169084313490831086000F076F854
:101C300010490968C1F303210F4A515C01F01F01EB
:101C400020FA01F70B48006800F00F001146085C0D
:101C500000F01F0027FA00F00849086008480760F4
:101C600008480068FEF7CCFD8046404682E600004A
:101C700000200052184402580C3D000810000024B7
:101C80000C0000240400002410B500F047F80D49B2
:101C90000968C1F303210C4A515C01F01F0120FACD
:101CA00001F40848006800F00F001146085C00F0DD
:101CB0001F0024FA00F00549086005480460084642
:101CC000006810BD184402580C3D000810000024A4
:101CD0000C00002400B5FFF7D7FF05490968C1F3E0
:101CE0000211044A515C01F01F01C84000BD000010
:101CF0001C4402580C3D000800B5FFF7C5FF05491C
:101D00000968C1F30221044A515C01F01F01C84077
:101D100000BD00001C4402580C3D0008F0B5824E86
:101D2000366806F0380636B1082E15D0102E15D0BC
:101D3000182E7DD114E07C4E103E3668C6F3401656
:101D400046B1794E103E3668C6F3C107774E26FA83
:101D500007F000E07548E5E07548E3E07548E1E02C
:101D6000714E1836366806F003046F4E1836366822
:101D7000C6F305116C4E1C36366806F001056A4E36
:101D800024363668C6F3CC0616FB05F601EE106A5B
:101D9000B8EE410A002971D024B1012C50D0022C98
:101DA0006DD16DE0604E103E3668C6F340163EB30E
:101DB0005D4E103E3668C6F3C1075C4E26FA07F347
:101DC00001EE103AF8EE411A01EE101AB8EE411A7F
:101DD00081EE812A9FED581AC0EE011A524E20362C
:101DE0003668C6F3080601EE106AB8EE411A31EE05
:101DF000811AF7EE001A31EE211A62EE010A1EE096
:101E000001EE101AB8EE411ADFED4C1A81EE812A6C
:101E10009FED491AC0EE011A434E20363668C6F3CC
:101E2000080601EE106AB8EE411A31EE811A00E0A0
:101E300076E0F7EE001A31EE211A62EE010A5BE05D
:101E400001EE101AB8EE411A9FED3D2AC2EE011ABA
:101E50009FED391A80EE012A334E20363668C6F3DC
:101E6000080601EE106AB8EE411A32EE011AB7EE1A
:101E7000002A31EE021A61EE810A3DE04EE01DE0DB
:101E800001EE101AB8EE411ADFED2E1A81EE812A0A
:101E90009FED291AC0EE011A234E20363668C6F38C
:101EA000080601EE106AB8EE411A31EE811AF7EE1B
:101EB000001A31EE211A62EE010A1DE001EE101A3D
:101EC000B8EE411A9FED1E2AC2EE011A9FED1A1AB2
:101ED00080EE012A144E20363668C6F3080601EE5D
:101EE000106AB8EE411A32EE011AB7EE002A31EE4E
:101EF000021A61EE810A00BF00BF0B4E2036366821
:101F0000C6F34626721C01EE102AB8EE411AC0EE46
:101F1000811ABCEEE11A11EE100A00E0002001E087
:101F2000034800BF00BFF0BD104402580090D0032A
:101F300000093D0040787D01000000460024744CFB
:101F40000024744A20BCBE4B2DE9F047044614B966
:101F50000120BDE8F087207800F00100002870D053
:101F6000FA48006800F03808F8481830D0F80090B7
:101F7000B8F1100F06D0B8F1180F0FD109F0030017
:101F800002280BD1F14810380068C0F34040002807
:101F90006AD06068002867D10120DAE700BF606876
:101FA000B0F5803F08D1E9481038006840F480302F
:101FB000E649103908602EE0606868B9E3481038D7
:101FC000006820F48030E149103908600846006854
:101FD00020F4802008601EE06068B0F5A02F0DD1CD
:101FE000DA481038006840F48020D8491039086079
:101FF0000846006840F4803008600CE0D348103890
:10200000006820F48030D149103908600846006823
:1020100020F48020086000BF606898B1FEF7AEFB36
:10202000054606E0FEF7AAFB401B642801D9032001
:102030008FE7C64810380068C0F340400028F1D050
:1020400012E012E0FEF79AFB054606E0FEF796FB6B
:10205000401B642801D903207BE7BC481038006886
:10206000C0F340400028F1D100BF207800F002000A
:10207000022874D1B548006800F03808B348183019
:10208000D0F80090B8F1000F05D0B8F1180F56D174
:1020900009F00300D0BBAD4810380068C0F38000E1
:1020A00018B1E06808B9012053E7A8481038006863
:1020B00020F01900E1680843A44910390860FEF7D0
:1020C0005DFB054606E0FEF759FB401B022801D9DF
:1020D00003203EE79D4810380068C0F380000028C8
:1020E000F1D000BFFEF744FB41F2030188421AD849
:1020F000206940280BD195480C38006820F47C30CA
:1021000040F4003091490C39086017E017E08F481F
:102110000C38006820F47C30216940EA01308B499A
:102120000C3908600AE089480C38006820F0FE404D
:10213000217C40EA016085490C39086066E0E0686E
:1021400088B382481038006820F01900E16808431D
:102150007E4910390860FEF711FB054607E056E09E
:10216000FEF70CFB401B022801D90320F1E677485B
:1021700010380068C0F380000028F1D000BFFEF7DF
:10218000F7FA41F2030188421AD8206940280BD19E
:102190006E480C38006820F47C3040F400306B4905
:1021A0000C39086017E017E068480C38006820F424
:1021B0007C30216940EA013064490C3908600AE04A
:1021C00062480C38006820F0FE40217C40EA016043
:1021D0005E490C39086019E05C481038006820F04E
:1021E00001005A4910390860FEF7C8FA054606E0B2
:1021F000FEF7C4FA401B022801D90320A9E6534880
:1022000010380068C0F380000028F1D100BF2078AA
:1022100000F0100010287CD14C48006800F038080D
:102220004A481830D0F80090B8F1080F06D0B8F13D
:10223000180F3DD109F00300012839D14348103867
:102240000068C0F3002020B1E069802801D001209F
:102250007FE600BFFEF78CFA41F2030188421AD8EC
:10226000206A20280AD139480C38006820F0F8404C
:1022700040F0804035490C39086018E033480C388C
:10228000006820F0F84094F8201040EA81602F495F
:102290000C3908600BE02D48001F006820F07C50CE
:1022A00094F8201040EA01602849091F086066E0A0
:1022B000E06978B325481038006840F08000234971
:1022C00010390860FEF75AFA054606E0FEF756FA9E
:1022D000401B022801D903203BE61C481038006847
:1022E000C0F300200028F1D000BFFEF741FA41F210
:1022F000030188421CD8206A20280CD113480C38CE
:10230000006820F0F84040F0804010490C39086027
:102310001AE035E01CE00D480C38006820F0F84069
:1023200094F8201040EA816008490C3908600BE0FD
:102330000648001F006820F07C5094F8201040EA06
:1023400001600249091F086019E0000010440258AA
:10235000FA48006820F08000F8490860FEF70EFA9D
:10236000054606E0FEF70AFA401B022801D90320C1
:10237000EFE5F2480068C0F300200028F2D100BF6A
:10238000207800F00800082836D16069D0B1EB4809
:102390007430006840F00100E84974310860FEF7CD
:1023A000EDF9054606E0FEF7E9F9401B022801D9E0
:1023B0000320CEE5E14874300068C0F340000028F7
:1023C000F1D019E0DD487430006820F00100DB49ED
:1023D00074310860FEF7D2F9054606E0FEF7CEF943
:1023E000401B022801D90320B3E5D44874300068AB
:1023F000C0F340000028F1D1207800F02000202810
:1024000030D1A069B8B1CD48006840F48050CB49C4
:102410000860FEF7B3F9054606E0FEF7AFF9401B8A
:10242000022801D9032094E5C4480068C0F3403075
:102430000028F2D016E0C148006820F48050BF495F
:102440000860FEF79BF9054606E0FEF797F9401B8A
:10245000022801D903207CE5B8480068C0F3403069
:102460000028F2D1207800F0040004287DD1B4487F
:10247000006840F48070B2490860FEF77FF90546B5
:1024800006E0FEF77BF9401B642801D9032060E5D4
:10249000AB48006800F480700028F2D000BFA0684C
:1024A000012808D1A5487030006840F00100A34918
:1024B000703108602DE0A06868B9A04870300068ED
:1024C00020F001009D49703108600846006820F046
:1024D000040008601DE0A06805280DD19748703001
:1024E000006840F0040095497031086008460068B3
:1024F00040F0010008600CE090487030006820F067
:1025000001008E49703108600846006820F0040020
:10251000086000BFA068A0B1FEF730F9054608E0EA
:10252000FEF72CF9401B41F28831884201D9032083
:102530000FE5824870300068C0F340000028EFD0FB
:1025400013E0FEF71BF9054608E0FEF717F9401BFC
:1025500041F28831884201D90320FAE4774870308B
:102560000068C0F340000028EFD1606A00287DD0E9
:1025700072481030006800F03800182877D0606A80
:10258000022875D16D48006820F080706B490860A2
:10259000FEF7F4F8054606E0FEF7F0F8401B0228C7
:1025A00001D90320D5E465480068C0F340600028E5
:1025B000F2D100BFD4E90A1041EA00105F49283186
:1025C000096840F2F332914308435C4928310860BE
:1025D000208E401EC0F30800616B491E4FF47E42FE
:1025E00002EA41210843218F491ED20102EA01413A
:1025F00008433C21095D491E120202EA01610843B9
:102600004E493031086000BF081F006820F001000B
:10261000091F08604948343000684FF6F871884354
:10262000A16C40EAC10045493431086043482C3070
:10263000006820F00C00216C084340492C310860F0
:102640000846006820F00200616C08433B492C31C9
:1026500008600846006840F480300860084600685A
:1026600040F4003008600846006802E06AE038E0A4
:102670001FE040F4802008600846006840F0010038
:1026800008602E48006840F080702C490860FEF712
:1026900075F8054606E0FEF771F8401B022801D9DF
:1026A000032056E425480068C0F340600028F2D0BB
:1026B00048E02248006820F0807020490860FEF75A
:1026C0005DF8054606E0FEF759F8401B022801D9DF
:1026D00003203EE419480068C0F340600028F2D1AE
:1026E00030E0164828300768144830300668606AC1
:1026F000012821D007F00301A06A81421CD1C7F351
:102700000511E06A884217D1C6F30801206B401E0C
:10271000814211D1606B401EC6F3462188420BD125
:10272000A06B401EC6F30641884205D1E06B401EF7
:10273000C6F30661884205D001200AE4004402582D
:1027400000480258002004E470B504462546681E7F
:10275000B0F1807F01D301200FE0681E4FF0E0212F
:1027600048610F214FF0FF3001F0D4F800204FF006
:10277000E021886107200861002070BD014600BF8C
:1027800091F88000012801D102207047012081F8D2
:10279000800000BF2420C1F884000868026808682F
:1027A000006820F001000B68186022F00052002041
:1027B0004866086802602020C1F8840000BF00203D
:1027C00081F8800000BF00BFDFE770B504460D460A
:1027D00000BF94F88000012801D1022070BD0120C3
:1027E00084F8800000BF2420C4F8840020680668B4
:1027F0002068006820F00100216808602068806877
:1028000020F06060284321688860204600F046FC84
:10281000206806602020C4F8840000BF002084F8EF
:10282000800000BF00BFD9E770B504460D4600BF69
:1028300094F88000012801D1022070BD012084F8A5
:10284000800000BF2420C4F8840020680668206847
:10285000006820F00100216808602068806820F08E
:102860006040284321688860204600F017FC2068FB
:1028700006602020C4F8840000BF002084F8800097
:1028800000BF00BFD9E710B504460CB9012010BD48
:10289000A06900B100E000BFD4F8840028B900208E
:1028A00084F88000204600F02BF82420C4F884002F
:1028B0002068006820F0010021680860204600F0D0
:1028C000D1FC012800D1E2E7A06A10B1204600F057
:1028D00011FC2068406820F490402168486020681E
:1028E000806820F02A00216888602068006840F035
:1028F000010021680860204600F078FCC7E700006E
:1029000010B5B6B00446142131A8FDF71BFDBC215B
:1029100002A8FDF717FD1D492068884234D1022026
:10292000029000201F9002A8FEF76CFA08B1FDF794
:1029300072FD00BF1648006840F40020144908608A
:102940000846006800F40020019000BF00BF00BFEF
:102950000F480838006840F001000D490839086048
:102960000846006800F00100019000BF00BF03208E
:10297000319002203290002033903490082035901E
:1029800031A90448FDF7F0FD36B010BD004C004001
:10299000E8440258000002582DE9F84F04460E465C
:1029A00017469946D4F8840020285ED106B117B99D
:1029B0000120BDE8F88F00BF94F88000012801D104
:1029C0000220F6E7012084F8800000BF0020543484
:1029D000A06321202063FDF7D1FE82462780678017
:1029E000543CA068B0F5805F04D1206910B900257F
:1029F000B04602E035464FF0000800BF002084F8E2
:102A0000800000BF1DE05346002280212046CDF803
:102A1000009000F0EDFE08B10320CAE745B9B8F810
:102A20000000C0F308002168886208F1020803E092
:102A30002878216888626D1CB4F85600401EA4F8FE
:102A40005600B4F856000028DDD15346002240213C
:102A50002046CDF8009000F0CBFE08B10320A8E797
:102A60002020C4F884000020A3E70220A1E700BFD3
:102A7000FEE7000000B587B0142102A8FDF762FC54
:102A800000BF2348006840F0100021490860084654
:102A9000006800F01000019000BF00BF00BF0846B2
:102AA000006840F0040008600846006800F0040078
:102AB000019000BF00BF00BF0846006840F08000E2
:102AC00008600846006800F08000019000BF00BF69
:102AD00000BF0846006840F0010008600846006832
:102AE00000F00100019000BF00BF0022082109484A
:102AF000FDF738FE0820029001200390002004908A
:102B0000059002A90348FDF72FFD07B000BD0000A6
:102B1000E04402580010025810B51A481A490860DB
:102B20004FF4E1304860002117488160C1600161C5
:102B30000C21416100218161C1610162416230204B
:102B4000114988624FF480510F48C1634900016404
:102B5000FFF799FE08B1FDF75EFC00210A48FFF778
:102B600063FE08B1FDF757FC00210748FFF72DFE73
:102B700008B1FDF750FC0448FFF700FE08B1FDF76F
:102B80004AFC10BD004C00401C00002400BFFEE7C2
:102B900000BFFEE7704700002DE9F04104460E46F5
:102BA00000275548006800F00300032802D10120E7
:102BB000BDE8F08150482838006820F080604E4918
:102BC00028390860FDF7DAFD054606E0FDF7D6FD79
:102BD000401B022801D90320EAE74748283800684B
:102BE000C0F3C0600028F1D100BF4348006820F462
:102BF0007C30216840EA01303F490860A088401ECF
:102C0000C0F30800A168491E4FF47E4202EA412148
:102C10000843A189491ED20102EA01410843217CEF
:102C2000491E120202EA016108433349103108606B
:102C300000BF3148001D006820F0C00061690843F2
:102C40002D49091D08600846006820F02000A16990
:102C500008432949091D08600846006820F0100053
:102C600008602548143000684FF6F8718843E16920
:102C700040EAC1002049143108601F48001D006867
:102C800040F010001C49091D08602EB90846006874
:102C900040F40020086012E0012E08D11648001D03
:102CA000006840F480101449091D086007E01248CC
:102CB000001D006840F400100F49091D08600E480F
:102CC0002838006840F080600B4928390860FDF71B
:102CD00055FD054606E0FDF751FD401B022801D9D0
:102CE000032065E7044828380068C0F3C060002866
:102CF000F1D038465CE70000284402582DE9F04145
:102D000004460E4600275548006800F003000328DB
:102D100002D10120BDE8F08150482838006820F039
:102D200080504E4928390860FDF728FD054606E029
:102D3000FDF724FD401B022801D90320EAE747489C
:102D400028380068C0F340700028F1D100BF434824
:102D5000006820F07C70218840EA01503F490860FB
:102D6000A088401EC0F30800A168491E4FF47E42AF
:102D700002EA41210843A189491ED20102EA014128
:102D80000843217C491E120202EA016108433349CB
:102D90001831086000BF3148001D006820F4406011
:102DA000616908432D49091D08600846006820F440
:102DB0000070A16908432949091D08600846006898
:102DC00020F48070086025481C3000684FF6F871C8
:102DD0008843E16940EAC10020491C3108601F486E
:102DE000001D006840F480701C49091D08602EB960
:102DF0000846006840F48000086012E0012E08D107
:102E00001648001D006840F400001449091D0860C0
:102E100007E01248001D006840F080700F49091D4E
:102E200008600E482838006840F080500B49283967
:102E30000860FDF7A3FC054606E0FDF79FFC401B7C
:102E4000022801D9032065E7044828380068C0F348
:102E500040700028F1D038465CE700002844025852
:102E6000704710B5FDF790FC10BD000000B59DB097
:102E70004C210AA8FDF766FA202102A8FDF762FAA4
:102E80000220FDF74DFD00BF002001904148006881
:102E900020F001003F4908600846006800F001008A
:102EA00001903D48006840F440403B4908600846B6
:102EB000006800F44040019000BF00BF00BF3648EA
:102EC000006800F40050B0F5005FF8D100BF33484F
:102ED000006840F00200314908600846006800F0D0
:102EE0000200019000BF00BF00BF002001902A48EF
:102EF000006840F44040284908600846006800F433
:102F0000404001902348006840F0010021490860DA
:102F10000846006800F00100019000BF00BF00BF3C
:102F20001D48006800F40050B0F5005FF8D10120A2
:102F30000A9000040B9002201390022114910521A5
:102F40001591C0211691022117911891199108210C
:102F50001A9100211B911C910AA8FEF7F5FF08B1F8
:102F6000FDF759FA3F2002900320039000200490BF
:102F7000082005904020069007900001089040200E
:102F80000990042102A8FEF7EFFC08B1FDF743FA0F
:102F90001DB000BD2C04005818480258F4440258D3
:102FA0003448006840F470003249086032480068D4
:102FB00000F00F00072806D22F48006820F00F000D
:102FC000C01D2D4908602D48006840F001002B49C4
:102FD0000860002029491031086028480068284905
:102FE0000840264908602448006800F00F000728C0
:102FF00006D92148006820F00F00C01D1E49086056
:1030000000201E4918310860091D0860091D08606C
:103010001C481A49283108601B48091D08601B48D4
:10302000091D08600020091D08601848091D086076
:103030000020091D08601548091D08600020091DB1
:1030400008600E48006820F480200C4908600020C9
:103050000A49603108600E4800686FF30F00B0F154
:10306000005F02D201200B49086043F2D2000A49F6
:103070000860704788ED00E00020005200440258CC
:103080007FEDF6EA000202020000FF01800201016A
:103090000010005C088100510040005270B5456E80
:1030A0002DB90125A0F86A50A0F868501CE0102343
:1030B00010240568AD68C5F342610568AD686A0F04
:1030C0000A4DAD5C15FB04F5094EB65C95FBF6F5B3
:1030D000A0F86A50054D6D5C15FB03F5044E765C57
:1030E00095FBF6F5A0F8685070BD0000FC3C0008A8
:1030F000043D000890F8281001F0010139B1016881
:10310000496821F40031C26A11430268516090F8A5
:10311000281001F00201022907D10168496821F451
:103120008031026B11430268516090F8281001F061
:103130000401042907D10168496821F48021426B08
:1031400011430268516090F8281001F00801082925
:1031500007D10168496821F40041826B114302687C
:10316000516090F8281001F01001102907D1016872
:10317000896821F48051C26B11430268916090F814
:10318000281001F02001202907D10168896821F465
:103190000051026C11430268916090F8281001F010
:1031A0004001402913D10168496821F48011426C23
:1031B000114302685160416CB1F5801F07D101686D
:1031C000496821F4C001826C11430268516090F893
:1031D000281001F08001802907D10168496821F495
:1031E0000021C26C114302685160704738B5044633
:1031F0000020C4F88C00FDF7C1FA0546206800687D
:1032000000F0080008280CD16FF07E402B46002209
:103210004FF400110090204600F0EAFA08B10320B4
:1032200038BD2068006800F0040004280CD16FF05D
:103230007E402B4600224FF480010090204600F093
:10324000D7FA08B10320EBE72020C4F88400C4F8C3
:1032500088000020E06600BF84F8800000BF00BF47
:10326000DEE700002DE9F04F89B005460020089008
:10327000F8492868884200D100E000BF2969A868A1
:10328000084369690843E96940EA01082868006859
:10329000F149084040EA0800296808602868406849
:1032A00020F44050E968084329684860D5F8188040
:1032B000E8492868884202D0286A40EA0808286855
:1032C0008068E649084040EA080029688860286864
:1032D000C06A20F00F00696A08432968C86200BF0D
:1032E000DF492868884220D1DE48006800F03800B5
:1032F000182811D005DC48B1082809D0102811D1B0
:1033000008E020280AD028280CD109E001240BE08D
:10331000042409E0082407E0102405E0202403E049
:10332000402401E0802400BFF8E0CF4928688842AB
:1033300019D1CC48006800F00700062810D2DFE859
:1033400000F0030507090B0D00240BE0042409E03D
:10335000082407E0102405E0202403E0402401E0D5
:10336000802400BFDAE0C1492868884219D1BD48ED
:10337000006800F00700062810D2DFE800F003051F
:1033800007090B0D00240BE0042409E0082407E0E2
:10339000102405E0202403E0402401E0802400BF45
:1033A000BCE0B3492868884219D1AE48006800F0F3
:1033B0000700062810D2DFE800F0030507090B0D0F
:1033C00000240BE0042409E0082407E0102405E0B1
:1033D000202403E0402401E0802400BF9EE0A549B2
:1033E0002868884219D19F48006800F00700062825
:1033F00010D2DFE800F0030507090B0D00240BE0F5
:10340000042409E0082407E0102405E0202403E058
:10341000402401E0802400BF80E09749286888426A
:1034200020D19048006800F03800182811D005DC41
:1034300048B1082809D0102811D108E020280AD066
:1034400028280CD109E001240BE0042409E0082419
:1034500007E0102405E0202403E0402401E080245C
:1034600000BF5BE085492868884219D17D48006823
:1034700000F00700062810D2DFE800F00305070976
:103480000B0D00240BE0042409E0082407E01024BD
:1034900005E0202403E0402401E0802400BF3DE05B
:1034A00077492868884219D16E48006800F0070003
:1034B000062810D2DFE800F0030507090B0D0024F1
:1034C0000BE0042409E0082407E0102405E0202490
:1034D00003E0402401E0802400BF1FE05D4928682C
:1034E00088421AD15F48001D006800F007000628D6
:1034F00010D2DFE800F0030507090B0D02240BE0F2
:10350000042409E0082407E0102405E0202403E057
:10351000402401E0802400BF00E0802400BF4D492A
:10352000286888427DD1102C1AD006DC022C09D0E4
:10353000042C0BD0082C29D10DE0202C21D0402CBC
:1035400024D120E0FDF71CFA064623E005A8FDF78C
:1035500029FA069E1EE002A8FDF73CFB039E19E037
:10356000404854380068C0F3401040B13D485438DA
:103570000068C0F3C101434820FA01F600E0414E63
:1035800008E0414E06E04FF4004603E0002601202B
:10359000089000BF00BF002E10D03C49686A31F887
:1035A0001000B6FBF0F9686800EB4000484503D80E
:1035B00068680003484502D20120089003E13349BE
:1035C000686A31F810C06246002330461946FCF79D
:1035D00081FE4FF4807300228446ACFB030B01FB99
:1035E00003B10CFB021C69684908034659184CEBEF
:1035F0000200CDE90010D5F804C062460023084659
:103600000199FCF767FE0746B7F5407F06D3B7F58B
:10361000801F03D22868C760D5E002E0012008902F
:10362000D1E0E869B0F5004F7BD1082C39D005DC3A
:103630005CB1012C2CD0042C4CD12DE0102C35D0B9
:10364000202C42D0402C45D141E0FEF743FB0646FA
:1036500044E00000000C0058F369FFCFFFF4FF11B5
:10366000001001405444025800440040004800400B
:10367000004C004000500040001401400078004021
:10368000007C00400090D00300093D00E43C0008AD
:10369000FEF732FB064621E005A8FDF783F9069EFA
:1036A0001CE002A8FDF796FA039E17E04C4800685C
:1036B000C0F3401038B14A480068C0F3C10149481E
:1036C00020FA01F600E0474E08E0474E06E04FF4CE
:1036D000004603E000260120089000BF00BFFEB1B5
:1036E0004249686A31F81000B6FBF0F040006968A2
:1036F00000EB5100B0FBF1F7102F0FD3B7F5803F6F
:103700000CD24FF6F07007EA000AC7F342004AEA0B
:10371000000A2868C0F80CA055E002E001200890DB
:1037200051E0082C1AD005DC5CB1012C0DD0042C22
:103730002DD10EE0102C16D0202C23D0402C26D1D9
:1037400022E0FEF7C7FA064625E0FEF7D5FA064660
:1037500021E005A8FDF726F9069E1CE002A8FDF76A
:1037600039FA039E17E01E480068C0F3401038B1D4
:103770001B480068C0F3C1011A4820FA01F600E0B6
:10378000184E08E0184E06E04FF4004603E000260D
:103790000120089000BF00BFAEB11449686A31F83B
:1037A0001000B6FBF0F0696800EB5100B0FBF1F7D8
:1037B000102F06D3B7F5803F03D2B8B22968C8608E
:1037C00001E0012008900120A5F86A00A5F8680032
:1037D000002028676867089809B0BDE8F08F0000EE
:1037E000004402580090D00300093D00E43C00086A
:1037F0002DE9F04104460D4617469846069E6AE0BC
:10380000701C002867D0FCF7B9FFA0EB0800B0429D
:1038100000D846BB00BF00BF216851E8001F21F45B
:10382000D070226842E800010029F5D100BF00BF36
:1038300000BF2168083151E8001F21F00100216814
:10384000083141E80002002AF3D100BF2020C4F86B
:103850008400C4F8880000BF002084F8800000BF06
:103860000320BDE8F0812068006800F0040088B300
:103870002068C069C0F3C02060B34FF400602168C5
:10388000086200BF00BF216851E8001F21F4D0701A
:10389000226842E800010029F5D100BF00BF00BF47
:1038A0002168083151E8001F21F00100216808312A
:1038B00041E80002002AF3D100BF202044F8840F21
:1038C0006060A060843C00BF002084F8800000BFDE
:1038D0000320C6E7FFE72068C0692840A84201D15D
:1038E000012000E00020B8428AD00020B9E700BFE4
:1038F000FEE70000014A024900F02FB8E93A00084B
:103900001800002402480068C0F30220704700003D
:103910000CED00E010B5002804DB0A07130E054A81
:10392000135406E00A07140E034A00F00F031B1F8E
:10393000D45410BD00E400E018ED00E002E008C837
:10394000121F08C1002AFAD170477047002001E019
:1039500001C1121F002AFBD170472DE9F041164624
:103960000F460446002503E03946B047641C6D1C31
:1039700020780028F8D12846BDE8F0811CB5FF204A
:103980002D4908702D490870282000F0D5F808BB93
:1039900028202B498870FCF77BFD04462948844287
:1039A00017D1694601A8FCF789FDBDF80400B0F500
:1039B000487F0DD1BDF80000B0F5F07F08D102209E
:1039C0001D49087004201D4908701FA0FFF792FFD1
:1039D00000BF2CE0BA2000F0AFF840BB4FF4FA7003
:1039E00000F058F8BA2016498870FCF751FD0446DB
:1039F000144884421AD1694601A8FCF75FFDBDF85E
:103A00000400B0F5487F10D1BDF80000B0F5F07F9C
:103A10000BD1BA200A498870022007490870042097
:103A20000649087011A0FFF765FF00BF00BF0A201C
:103A300000F030F81CBD0000140000241500002424
:103A4000AC00002439313100BCECB2E2B5BD37B472
:103A5000E7B5E7C8DDC6C14754393131283078327F
:103A60003829203830302A3438300A00BCECB2E231
:103A7000B5BD372E30B4E7B5E7C8DDC6C147543908
:103A80003131283078424129383030783438300AA2
:103A900000000000F0B5034600224FF0E0267569F3
:103AA0000F4E36680F4FB6FBF7F606FB03F44FF0E8
:103AB000E026B16910E04FF0E026B06988420BD0F3
:103AC000884202D20E1A324402E02E1A0E443244C8
:103AD0000146A24200D300E0EDE700BFF0BD0000C8
:103AE0000C00002440420F0013B50C464FF6FF7344
:103AF000012269460248FEF74FFF00981CBD0000F6
:103B00001C00002400B54FF400100A49886100F041
:103B10002FF810200749886100F02AF84FF4801030
:103B20000449886100F024F820200249886100F0EF
:103B30001FF800BD0010025830B504460B4800695C
:103B400000F0200080B10948006900F0100058B171
:103B500000F070F8204600F045F800F097F80546B0
:103B600000F080F8284630BD0120FCE70010025824
:103B700000B50420FFF78EFF00BD000000B5202037
:103B800007498861FFF7F4FF102005498861FFF7B6
:103B9000EFFF4FF4801002498861FFF7E9FF00BD95
:103BA0000010025830B50024002515E06006040E10
:103BB00010200B498861FFF7DBFF0948006900F01E
:103BC000200008B1601CC4B24FF480100449886121
:103BD000FFF7CEFF681CC5B2082DE7DB204630BDDD
:103BE0000010025830B5044600251DE004F08000A6
:103BF00018B120200E49886103E04FF400100C49F1
:103C00008861FFF7B5FF102009498861FFF7B0FF11
:103C10004FF4801006498861072D01D1202088616A
:103C20006006040E681CC5B2082DDFDB30BD000045
:103C30000010025800B520200949886110208861D1
:103C4000FFF796FF4FF4001005498861FFF790FFDA
:103C50004FF4801002498861FFF78AFF00BD000021
:103C60000010025800B54FF4001007498861FFF7B3
:103C70007FFF102004498861FFF77AFF2020024966
:103C80008861FFF775FF00BD0010025810B52020B5
:103C90000C498861FFF76CFF10200A498861FFF723
:103CA00067FF0848006900F0200008B1012400E027
:103CB00000244FF4801003498861FFF759FF204624
:103CC00010BD000000100258FCF76AFDFFF7CEF8A7
:103CD000FEF7D0FEFEF720FFFCF772FBFCF79EFB21
:103CE00000BFFEE7010002000400060008000A0011
:103CF0000C001000200040008000000101010103C1
:103D0000070100000804020408010101000000008E
:103D10000102030401020304060708093C3D0008F0
:103D2000000000241C0000003C390008583D000839
:103D30001C000024B40400004C39000800000000FE
:103D400010000000010000000090D0030090D0039C
:083D500000000000000000006B
:040000050800029954
:00000001FF
